{
  "contractName": "swap",
  "abi": [
    {
      "inputs": [
        {
          "internalType": "address",
          "name": "_uniswap",
          "type": "address"
        }
      ],
      "stateMutability": "nonpayable",
      "type": "constructor"
    },
    {
      "stateMutability": "payable",
      "type": "receive",
      "payable": true
    },
    {
      "inputs": [
        {
          "internalType": "address",
          "name": "tokenA",
          "type": "address"
        },
        {
          "internalType": "address",
          "name": "tokenB",
          "type": "address"
        },
        {
          "internalType": "uint256",
          "name": "amountADesired",
          "type": "uint256"
        },
        {
          "internalType": "uint256",
          "name": "amountBDesired",
          "type": "uint256"
        },
        {
          "internalType": "uint256",
          "name": "amountAMin",
          "type": "uint256"
        },
        {
          "internalType": "uint256",
          "name": "amountBMin",
          "type": "uint256"
        },
        {
          "internalType": "address",
          "name": "to",
          "type": "address"
        },
        {
          "internalType": "uint256",
          "name": "deadline",
          "type": "uint256"
        }
      ],
      "name": "appAddLiquidity",
      "outputs": [
        {
          "internalType": "uint256",
          "name": "amountA",
          "type": "uint256"
        },
        {
          "internalType": "uint256",
          "name": "amountB",
          "type": "uint256"
        },
        {
          "internalType": "uint256",
          "name": "liquidity",
          "type": "uint256"
        }
      ],
      "stateMutability": "nonpayable",
      "type": "function"
    },
    {
      "inputs": [
        {
          "internalType": "address",
          "name": "token",
          "type": "address"
        },
        {
          "internalType": "uint256",
          "name": "amountTokenDesired",
          "type": "uint256"
        },
        {
          "internalType": "uint256",
          "name": "amountTokenMin",
          "type": "uint256"
        },
        {
          "internalType": "uint256",
          "name": "amountETHMin",
          "type": "uint256"
        },
        {
          "internalType": "address",
          "name": "to",
          "type": "address"
        },
        {
          "internalType": "uint256",
          "name": "deadline",
          "type": "uint256"
        }
      ],
      "name": "appAddLiquidityETH",
      "outputs": [
        {
          "internalType": "uint256",
          "name": "amountToken",
          "type": "uint256"
        },
        {
          "internalType": "uint256",
          "name": "amountETH",
          "type": "uint256"
        },
        {
          "internalType": "uint256",
          "name": "liquidity",
          "type": "uint256"
        }
      ],
      "stateMutability": "payable",
      "type": "function",
      "payable": true
    },
    {
      "inputs": [
        {
          "internalType": "address",
          "name": "_targetToken",
          "type": "address"
        },
        {
          "internalType": "uint256",
          "name": "_amountIn",
          "type": "uint256"
        },
        {
          "internalType": "uint256",
          "name": "_amountOutMin",
          "type": "uint256"
        },
        {
          "internalType": "uint256",
          "name": "_deadline",
          "type": "uint256"
        }
      ],
      "name": "appSwapExactETHForTokens",
      "outputs": [],
      "stateMutability": "nonpayable",
      "type": "function"
    }
  ],
  "bytecode": "0x608060405234801561001057600080fd5b50604051610ac7380380610ac78339818101604052602081101561003357600080fd5b8101908080519060200190929190505050806000806101000a81548173ffffffffffffffffffffffffffffffffffffffff021916908373ffffffffffffffffffffffffffffffffffffffff16021790555050610a33806100946000396000f3fe6080604052600436106100385760003560e01c80630a408f6a1461004457806396bb80b91461012a578063d398adb0146101995761003f565b3661003f57005b600080fd5b34801561005057600080fd5b50610106600480360361010081101561006857600080fd5b81019080803573ffffffffffffffffffffffffffffffffffffffff169060200190929190803573ffffffffffffffffffffffffffffffffffffffff16906020019092919080359060200190929190803590602001909291908035906020019092919080359060200190929190803573ffffffffffffffffffffffffffffffffffffffff16906020019092919080359060200190929190505050610247565b60405180848152602001838152602001828152602001935050505060405180910390f35b34801561013657600080fd5b506101976004803603608081101561014d57600080fd5b81019080803573ffffffffffffffffffffffffffffffffffffffff16906020019092919080359060200190929190803590602001909291908035906020019092919050505061025a565b005b610223600480360360c08110156101af57600080fd5b81019080803573ffffffffffffffffffffffffffffffffffffffff169060200190929190803590602001909291908035906020019092919080359060200190929190803573ffffffffffffffffffffffffffffffffffffffff169060200190929190803590602001909291905050506107a8565b60405180848152602001838152602001828152602001935050505060405180910390f35b6000806000985098509895505050505050565b60008490506000849050600084905060008490508373ffffffffffffffffffffffffffffffffffffffff166323b872dd3330866040518463ffffffff1660e01b8152600401808473ffffffffffffffffffffffffffffffffffffffff1673ffffffffffffffffffffffffffffffffffffffff1681526020018373ffffffffffffffffffffffffffffffffffffffff1673ffffffffffffffffffffffffffffffffffffffff1681526020018281526020019350505050602060405180830381600087803b15801561032957600080fd5b505af115801561033d573d6000803e3d6000fd5b505050506040513d602081101561035357600080fd5b8101908080519060200190929190505050506060600267ffffffffffffffff8111801561037f57600080fd5b506040519080825280602002602001820160405280156103ae5781602001602082028036833780820191505090505b50905084816000815181106103bf57fe5b602002602001019073ffffffffffffffffffffffffffffffffffffffff16908173ffffffffffffffffffffffffffffffffffffffff16815250506000809054906101000a900473ffffffffffffffffffffffffffffffffffffffff1673ffffffffffffffffffffffffffffffffffffffff1663ad5c46486040518163ffffffff1660e01b815260040160206040518083038186803b15801561046057600080fd5b505afa158015610474573d6000803e3d6000fd5b505050506040513d602081101561048a57600080fd5b8101908080519060200190929190505050816001815181106104a857fe5b602002602001019073ffffffffffffffffffffffffffffffffffffffff16908173ffffffffffffffffffffffffffffffffffffffff16815250508473ffffffffffffffffffffffffffffffffffffffff1663095ea7b36000809054906101000a900473ffffffffffffffffffffffffffffffffffffffff16866040518363ffffffff1660e01b8152600401808373ffffffffffffffffffffffffffffffffffffffff1673ffffffffffffffffffffffffffffffffffffffff16815260200182815260200192505050602060405180830381600087803b15801561058a57600080fd5b505af115801561059e573d6000803e3d6000fd5b505050506040513d60208110156105b457600080fd5b8101908080519060200190929190505050506000809054906101000a900473ffffffffffffffffffffffffffffffffffffffff1673ffffffffffffffffffffffffffffffffffffffff1663a5be382e85858433876040518663ffffffff1660e01b815260040180868152602001858152602001806020018473ffffffffffffffffffffffffffffffffffffffff1673ffffffffffffffffffffffffffffffffffffffff168152602001838152602001828103825285818151815260200191508051906020019060200280838360005b8381101561069e578082015181840152602081019050610683565b505050509050019650505050505050600060405180830381600087803b1580156106c757600080fd5b505af11580156106db573d6000803e3d6000fd5b505050506040513d6000823e3d601f19601f82011682018060405250602081101561070557600080fd5b810190808051604051939291908464010000000082111561072557600080fd5b8382019150602082018581111561073b57600080fd5b825186602082028301116401000000008211171561075857600080fd5b8083526020830192505050908051906020019060200280838360005b8381101561078f578082015181840152602081019050610774565b5050505090500160405250505050505050505050505050565b6000806000808973ffffffffffffffffffffffffffffffffffffffff1663095ea7b36000809054906101000a900473ffffffffffffffffffffffffffffffffffffffff168b6040518363ffffffff1660e01b8152600401808373ffffffffffffffffffffffffffffffffffffffff1673ffffffffffffffffffffffffffffffffffffffff16815260200182815260200192505050602060405180830381600087803b15801561085657600080fd5b505af115801561086a573d6000803e3d6000fd5b505050506040513d602081101561088057600080fd5b8101908080519060200190929190505050905080156109ef576000809054906101000a900473ffffffffffffffffffffffffffffffffffffffff1673ffffffffffffffffffffffffffffffffffffffff1663f305d719348c8c8c8c8c8c6040518863ffffffff1660e01b8152600401808773ffffffffffffffffffffffffffffffffffffffff1673ffffffffffffffffffffffffffffffffffffffff1681526020018681526020018581526020018481526020018373ffffffffffffffffffffffffffffffffffffffff1673ffffffffffffffffffffffffffffffffffffffff16815260200182815260200196505050505050506060604051808303818588803b15801561098d57600080fd5b505af11580156109a1573d6000803e3d6000fd5b50505050506040513d60608110156109b857600080fd5b81019080805190602001909291908051906020019092919080519060200190929190505050505050838383935093509350506109f1565b505b9650965096935050505056fea2646970667358221220b07a4c7d403d48074b7ac35be88d65fd80dee31e37fa1090ac8fe8d1911b33cd64736f6c63430006060033",
  "immutableReferences": {},
  "source": "pragma solidity >=0.6.6<=0.7.1;\r\n\r\ninterface IUniswap {\r\n\r\n        //For Swapping Assets\r\n        function swapExactETHForTokens(\r\n                uint amountIn, \r\n                uint amountOutMin, \r\n                address[] calldata path, \r\n                address to, \r\n                uint deadline) \r\n            external returns (uint[] memory amounts);\r\n\r\n        function WETH() external pure returns (address);\r\n\r\n        /*\r\n        * For adding to liquidity pools\r\n        * Adds liquidity to an ERC20 <=> ERC20\r\n        */\r\n        function addLiquidity(\r\n                address tokenA,\r\n                address tokenB,\r\n                uint amountADesired,\r\n                uint amountBDesired,\r\n                uint amountAMin,\r\n                uint amountBMin,\r\n                address to,\r\n                uint deadline\r\n                ) external returns (uint amountA, uint amountB, uint liquidity);\r\n\r\n        /*\r\n        * Adds liquidity to ERC20 <=> WETH pool with ETH\r\n        */\r\n        function addLiquidityETH(\r\n                address token,\r\n                uint amountTokenDesired,\r\n                uint amountTokenMin,\r\n                uint amountETHMin,\r\n                address to,\r\n                uint deadline\r\n                ) external payable returns (uint amountToken, uint amountETH, uint liquidity);\r\n}\r\n\r\ninterface IERC20 {\r\n    /**\r\n     * @dev Moves `amount` tokens from `sender` to `recipient` using the\r\n     * allowance mechanism. `amount` is then deducted from the caller's\r\n     * allowance.\r\n     *\r\n     * Returns a boolean value indicating whether the operation succeeded.\r\n     *\r\n     * Emits a {Transfer} event.\r\n     */\r\n    function transferFrom(address sender, address recipient, uint256 amount) external returns (bool);\r\n\r\n     /**\r\n     * @dev Sets `amount` as the allowance of `spender` over the caller's tokens.\r\n     *\r\n     * Returns a boolean value indicating whether the operation succeeded.\r\n     *\r\n     * IMPORTANT: Beware that changing an allowance with this method brings the risk\r\n     * that someone may use both the old and the new allowance by unfortunate\r\n     * transaction ordering. One possible solution to mitigate this race\r\n     * condition is to first reduce the spender's allowance to 0 and set the\r\n     * desired value afterwards:\r\n      \r\n     * https://github.com/ethereum/EIPs/issues/20#issuecomment-263524729\r\n     *\r\n     * Emits an {Approval} event.\r\n     */\r\n    function approve(address spender, uint256 amount) external returns (bool);\r\n}\r\n\r\ncontract swap {\r\n    IUniswap uniswap;\r\n\r\n    constructor (address _uniswap) public {\r\n        uniswap = IUniswap(_uniswap);\r\n    }\r\n\r\n    function appAddLiquidity(\r\n                address tokenA,\r\n                address tokenB,\r\n                uint amountADesired,\r\n                uint amountBDesired,\r\n                uint amountAMin,\r\n                uint amountBMin,\r\n                address to,\r\n                uint deadline\r\n                ) external returns (uint amountA, uint amountB, uint liquidity) {\r\n            //IERC20(token).approve(address(uniswap),amountIn); //if erc20 to erc20, does it require approval?\r\n            //uniswap.addLiquidity(token, amountTokenDesired, amountTokenMin, amountETHMin, to, deadline);\r\n    }\r\n\r\n    function appAddLiquidityETH(\r\n                address token,\r\n                uint amountTokenDesired,\r\n                uint amountTokenMin,\r\n                uint amountETHMin,\r\n                address to,\r\n                uint deadline\r\n                ) external payable returns (uint amountToken, uint amountETH, uint liquidity) {\r\n            bool isapproved = IERC20(token).approve(address(uniswap),amountTokenDesired);\r\n            if(isapproved) {\r\n                    uniswap.addLiquidityETH{value:msg.value}(token, amountTokenDesired, amountTokenMin, amountETHMin, to, deadline);\r\n                    return(amountToken, amountETH, liquidity);\r\n            }\r\n            \r\n    }\r\n\r\n    /*\r\n        address token - is considered the target token: From ETH to DAI or from ETH to USDC where DAI or USDC is the target token and ETH is the Source token,\r\n        uint amountIn - How much ETH or source asset you want to put in to get the right amount of return from the target token.  \r\n        uint amountOutMin - The minimum amount of output tokens that must be received for the transaction not to revert.\r\n        address[] path - The way the tokens will be \"swapped\".  For example, from ETH to DAI or ETH to USDC or ETH to WETH\r\n        to - Recipient of the output tokens\r\n        uint deadline - basically a timestamp for the transaction to execute.  Eventually must time out if it is taking too long. \r\n                        Transaction will revert\r\n    */\r\n    function appSwapExactETHForTokens(address _targetToken, uint _amountIn, uint _amountOutMin, uint _deadline)\r\n    external  {\r\n        //mock data\r\n        address token = _targetToken; //0xc7AD46e0b8a400Bb3C915120d284AafbA8fc4735; //DAI\r\n        uint amountIn = _amountIn; //1000000000000000;\r\n        uint amountOutMin = _amountOutMin; //2141362528302760221;\r\n        uint deadline = _deadline; //1618237897;\r\n\r\n        IERC20(token).transferFrom(msg.sender, address(this), amountIn);\r\n        //build arguments\r\n        address[] memory path = new address[](2);\r\n        path[0] = token;\r\n        path[1] = uniswap.WETH();\r\n\r\n        //need to approve Uniswap to do a trade\r\n        IERC20(token).approve(address(uniswap),amountIn);\r\n        uniswap.swapExactETHForTokens(\r\n            amountIn,\r\n            amountOutMin,\r\n            path,\r\n            msg.sender,\r\n            deadline\r\n        );\r\n\r\n    }\r\n\r\n    receive() payable external {}\r\n}",
  "sourcePath": "C:/Users/jaype/antebellum_projects/uniswap_liquidity_sc/contracts/swap.sol",
  "compiler": {
    "name": "solc",
    "version": "0.6.6+commit.6c089d02.Emscripten.clang"
  },
  "schemaVersion": "3.3.4",
  "updatedAt": "2021-04-14T17:35:41.010Z",
  "networkType": "ethereum",
  "devdoc": {
    "methods": {}
  },
  "userdoc": {
    "methods": {}
  }
}