{
  "contractName": "swap",
  "abi": [
    {
      "inputs": [
        {
          "internalType": "address",
          "name": "_uniswap",
          "type": "address"
        }
      ],
      "stateMutability": "nonpayable",
      "type": "constructor"
    },
    {
      "inputs": [],
      "name": "swapTokensForETH",
      "outputs": [],
      "stateMutability": "nonpayable",
      "type": "function"
    }
  ],
  "bytecode": "0x608060405234801561001057600080fd5b506040516106753803806106758339818101604052602081101561003357600080fd5b8101908080519060200190929190505050806000806101000a81548173ffffffffffffffffffffffffffffffffffffffff021916908373ffffffffffffffffffffffffffffffffffffffff160217905550506105e1806100946000396000f3fe608060405234801561001057600080fd5b506004361061002b5760003560e01c8063c747c53314610030575b600080fd5b61003861003a565b005b600073c7ad46e0b8a400bb3c915120d284aafba8fc47359050600066038d7ea4c6800090506000671db7a5dfc2d1811d9050600063607459c990508373ffffffffffffffffffffffffffffffffffffffff166323b872dd3330866040518463ffffffff1660e01b8152600401808473ffffffffffffffffffffffffffffffffffffffff1673ffffffffffffffffffffffffffffffffffffffff1681526020018373ffffffffffffffffffffffffffffffffffffffff1673ffffffffffffffffffffffffffffffffffffffff1681526020018281526020019350505050602060405180830381600087803b15801561013057600080fd5b505af1158015610144573d6000803e3d6000fd5b505050506040513d602081101561015a57600080fd5b8101908080519060200190929190505050506060600267ffffffffffffffff8111801561018657600080fd5b506040519080825280602002602001820160405280156101b55781602001602082028036833780820191505090505b50905084816000815181106101c657fe5b602002602001019073ffffffffffffffffffffffffffffffffffffffff16908173ffffffffffffffffffffffffffffffffffffffff16815250506000809054906101000a900473ffffffffffffffffffffffffffffffffffffffff1673ffffffffffffffffffffffffffffffffffffffff1663ad5c46486040518163ffffffff1660e01b815260040160206040518083038186803b15801561026757600080fd5b505afa15801561027b573d6000803e3d6000fd5b505050506040513d602081101561029157600080fd5b8101908080519060200190929190505050816001815181106102af57fe5b602002602001019073ffffffffffffffffffffffffffffffffffffffff16908173ffffffffffffffffffffffffffffffffffffffff16815250508473ffffffffffffffffffffffffffffffffffffffff1663095ea7b36000809054906101000a900473ffffffffffffffffffffffffffffffffffffffff16866040518363ffffffff1660e01b8152600401808373ffffffffffffffffffffffffffffffffffffffff1673ffffffffffffffffffffffffffffffffffffffff16815260200182815260200192505050602060405180830381600087803b15801561039157600080fd5b505af11580156103a5573d6000803e3d6000fd5b505050506040513d60208110156103bb57600080fd5b8101908080519060200190929190505050506000809054906101000a900473ffffffffffffffffffffffffffffffffffffffff1673ffffffffffffffffffffffffffffffffffffffff166369f6194885858433876040518663ffffffff1660e01b815260040180868152602001858152602001806020018473ffffffffffffffffffffffffffffffffffffffff1673ffffffffffffffffffffffffffffffffffffffff168152602001838152602001828103825285818151815260200191508051906020019060200280838360005b838110156104a557808201518184015260208101905061048a565b505050509050019650505050505050600060405180830381600087803b1580156104ce57600080fd5b505af11580156104e2573d6000803e3d6000fd5b505050506040513d6000823e3d601f19601f82011682018060405250602081101561050c57600080fd5b810190808051604051939291908464010000000082111561052c57600080fd5b8382019150602082018581111561054257600080fd5b825186602082028301116401000000008211171561055f57600080fd5b8083526020830192505050908051906020019060200280838360005b8381101561059657808201518184015260208101905061057b565b5050505090500160405250505050505050505056fea2646970667358221220c5ce73dc2a1949de7d89c89e4505d6562d101a50e2f124fcb224242992257a4464736f6c63430006060033",
  "immutableReferences": {},
  "source": "pragma solidity >=0.6.6<=0.7.1;\r\n\r\ninterface IUniswap {\r\n\r\n        function swapTokensForETH(\r\n                uint amountIn, \r\n                uint amountOutMin, \r\n                address[] calldata path, \r\n                address to, \r\n                uint deadline) \r\n            external returns (uint[] memory amounts);\r\n\r\n        function WETH() external pure returns (address);\r\n\r\n}\r\n\r\ninterface IERC20 {\r\n    /**\r\n     * @dev Moves `amount` tokens from `sender` to `recipient` using the\r\n     * allowance mechanism. `amount` is then deducted from the caller's\r\n     * allowance.\r\n     *\r\n     * Returns a boolean value indicating whether the operation succeeded.\r\n     *\r\n     * Emits a {Transfer} event.\r\n     */\r\n    function transferFrom(address sender, address recipient, uint256 amount) external returns (bool);\r\n\r\n     /**\r\n     * @dev Sets `amount` as the allowance of `spender` over the caller's tokens.\r\n     *\r\n     * Returns a boolean value indicating whether the operation succeeded.\r\n     *\r\n     * IMPORTANT: Beware that changing an allowance with this method brings the risk\r\n     * that someone may use both the old and the new allowance by unfortunate\r\n     * transaction ordering. One possible solution to mitigate this race\r\n     * condition is to first reduce the spender's allowance to 0 and set the\r\n     * desired value afterwards:\r\n     * https://github.com/ethereum/EIPs/issues/20#issuecomment-263524729\r\n     *\r\n     * Emits an {Approval} event.\r\n     */\r\n    function approve(address spender, uint256 amount) external returns (bool);\r\n}\r\n\r\ncontract swap {\r\n    IUniswap uniswap;\r\n\r\n    constructor (address _uniswap) public {\r\n        uniswap = IUniswap(_uniswap);\r\n    }\r\n\r\n    /*\r\n        \r\n        address token,\r\n        uint amountIn,\r\n        uint amountOutMin,\r\n        uint deadline\r\n    */\r\n    function swapTokensForETH()\r\n    external  {\r\n        //mock data\r\n        address token = 0xc7AD46e0b8a400Bb3C915120d284AafbA8fc4735; //DAI\r\n        uint amountIn = 1000000000000000;\r\n        uint amountOutMin = 2141362528302760221;\r\n        uint deadline = 1618237897;\r\n\r\n        IERC20(token).transferFrom(msg.sender, address(this), amountIn);\r\n        //build arguments\r\n        address[] memory path = new address[](2);\r\n        path[0] = token;\r\n        path[1] = uniswap.WETH();\r\n\r\n        //need to approve Uniswap to do a trade\r\n        IERC20(token).approve(address(uniswap),amountIn);\r\n        uniswap.swapTokensForETH(\r\n            amountIn,\r\n            amountOutMin,\r\n            path,\r\n            msg.sender,\r\n            deadline\r\n        );\r\n\r\n    }\r\n}",
  "sourcePath": "C:/Users/jaype/antebellum_projects/uniswap_liquidity_sc/contracts/swap.sol",
  "compiler": {
    "name": "solc",
    "version": "0.6.6+commit.6c089d02.Emscripten.clang"
  },
  "schemaVersion": "3.3.4",
  "updatedAt": "2021-04-12T14:55:33.913Z",
  "networkType": "ethereum",
  "devdoc": {
    "methods": {}
  },
  "userdoc": {
    "methods": {}
  }
}